:100000000C9461000C947E000C947E000C947E0095
:100010000C947E000C947E000C947E000C947E0068
:100020000C947E000C947E000C947E000C947E0058
:100030000C947E000C947E000C947E000C947E0048
:100040000C94B7020C947E000C947E000C947E00FD
:100050000C947E000C947E000C947E000C947E0028
:100060000C947E000C947E00000000002400270009
:100070002A0000000000250028002B0000000000DE
:1000800023002600290004040404040404040202DA
:100090000202020203030303030301020408102007
:1000A0004080010204081020010204081020000012
:1000B0000008000201000003040700000000000027
:1000C000000011241FBECFEFD8E0DEBFCDBF12E08D
:1000D000A0E0B1E0E8E5F9E002C005900D92A4319E
:1000E000B107D9F722E0A4E1B2E001C01D92A3322A
:1000F000B207E1F70E9401030C94AA040C940000DB
:10010000833081F028F4813099F08230A1F0089595
:100110008730A9F08830B9F08430D1F48091800024
:100120008F7D03C0809180008F7780938000089539
:1001300084B58F7702C084B58F7D84BD089580918A
:10014000B0008F7703C08091B0008F7D8093B000A6
:100150000895CF93DF93282F30E0F901E255FF4F48
:100160008491F901E656FF4FD491F901EA57FF4F08
:10017000C491CC2391F081110E948000EC2FF0E01B
:10018000EE0FFF1FE458FF4FA591B491EC91ED23C2
:1001900081E090E021F480E002C080E090E0DF9117
:1001A000CF9108951F93CF93DF93282F30E0F9016B
:1001B000E255FF4F8491F901E656FF4FD491F901C2
:1001C000EA57FF4FC491CC23C1F0162F81110E9432
:1001D0008000EC2FF0E0EE0FFF1FEE58FF4FA591CF
:1001E000B4919FB7F894111104C08C91D095D82385
:1001F00002C0EC91DE2BDC939FBFDF91CF911F916A
:100200000895CF93DF9390E0FC01E656FF4F2491D1
:10021000FC01EA57FF4F8491882361F190E0880F39
:10022000991FFC01E859FF4FC591D491FC01EE588C
:10023000FF4FA591B491611109C09FB7F8948881CF
:10024000209582238883EC912E230BC0623061F4C9
:100250009FB7F8948881322F309583238883EC915F
:100260002E2B2C939FBF06C08FB7F894E8812E2BBE
:1002700028838FBFDF91CF9108953FB7F894809185
:10028000190290911A02A0911B02B0911C0226B58E
:10029000A89B05C02F3F19F00196A11DB11D3FBFBE
:1002A000BA2FA92F982F8827820F911DA11DB11D4C
:1002B000BC01CD0142E0660F771F881F991F4A9548
:1002C000D1F708958F929F92AF92BF92CF92DF9213
:1002D000EF92FF920E943D014B015C0188ECC82E19
:1002E000D12CE12CF12C0E943D01DC01CB018819BD
:1002F0009909AA09BB09883E9340A105B10598F365
:1003000021E0C21AD108E108F10888EE880E83E0E6
:10031000981EA11CB11CC114D104E104F10419F709
:10032000FF90EF90DF90CF90BF90AF909F908F9015
:1003300008951F93CF93DF93182FEB01812F0E9415
:10034000A9008C179D07D1F7DF91CF911F910895D8
:10035000DF92EF92FF920F931F93CF93DF93C091A1
:100360000201D091030160E070E0CE010E9499018A
:1003700010910001812F0E94A90088E0E82EF12C45
:10038000DD24D39400E061E070E0CE010E94990189
:1003900060E070E0CE010E949901812F0E94A900C7
:1003A000882311F08D2D01C080E0082BDD0C81E049
:1003B000E81AF10841F761E070E0CE010E9499016E
:1003C00060E070E0CE010E949901812F0E94A90097
:1003D00061E070E0CE010E94990160E070E0CE0122
:1003E0000E949901812F0E94A90061E070E0CE0176
:1003F0000E949901802FDF91CF911F910F91FF9063
:10040000EF90DF900895EF92FF920F931F93CF9399
:10041000DF93182FC0910201F090030162E08C2F4E
:100420000E940101D091000162E08D2F0E94010124
:10043000E12FF0E0EC5FFE4F008160E08C2F0E9426
:10044000D20061E08D2F0E94010183E592E00197C7
:10045000F1F760E08D2F0E94D20061E08D2F0E94A5
:10046000010162E08C2F0E94010160E070E08C2F9E
:100470009F2D0E94990188E0E82EF12C10FF04C006
:1004800062E08091000108C0C091000160E08C2F03
:100490000E94D20061E08C2F0E9401011695C0914C
:1004A0000201D091030161E070E0CE010E94990148
:1004B00060E070E0CE010E94990181E0E81AF10845
:1004C000E9F6002321F062E08091000108C010915C
:1004D000000160E0812F0E94D20061E0812F0E9424
:1004E000010161E070E0CE010E94990160E070E0DE
:1004F000CE010E94990110910001F090010162E08B
:10050000812F0E94010160E070E0812F9F2D0E94E9
:10051000990160E070E0CE010E94990161E070E015
:10052000812F9F2D0E94990161E070E0CE01DF9143
:10053000CF911F910F91FF90EF900C9499010E9421
:10054000620161E08DE00E94D2000E94620160E0E1
:100550008DE00E94D2000E94620161E08DE00E9465
:10056000D2000E94620160E08DE00C94D2001F92E4
:100570000F920FB60F9211242F933F938F939F9357
:10058000AF93BF938091150290911602A09117022C
:10059000B09118023091140223E0230F2D3720F47C
:1005A0000196A11DB11D05C026E8230F0296A11DCD
:1005B000B11D209314028093150290931602A0930C
:1005C0001702B09318028091190290911A02A0911B
:1005D0001B02B0911C020196A11DB11D809319024E
:1005E00090931A02A0931B02B0931C02BF91AF918B
:1005F0009F918F913F912F910F900FBE0F901F9061
:100600001895789484B5826084BD84B5816084BD7A
:1006100085B5826085BD85B5816085BD80916E00A0
:10062000816080936E0010928100809181008260D1
:10063000809381008091810081608093810080910E
:1006400080008160809380008091B10084608093FD
:10065000B1008091B00081608093B00080917A00F9
:10066000846080937A0080917A00826080937A001F
:1006700080917A00816080937A0080917A0080680E
:1006800080937A001092C10083E090E09093030180
:100690008093020182E090E0909301018093000139
:1006A00061E08DE00E9401010E949F0260E08CE009
:1006B0000E94010160E08BE00E94010160E08AE09D
:1006C0000E94010160E089E00E94010160E088E091
:1006D0000E94010160E087E00E94010160E086E085
:1006E0000E9401018FEF0E9403020E94A8010E9454
:1006F000A8010E94A80188EE0E9403020E94A8019E
:1007000080E00E9403020E94A80180EF0E94030281
:100710000E94A8010E949F0264E0462E512C70E0C6
:10072000272E70E0372E8BEE0E9403020E94A80154
:100730000E94A801D82E0E94A801C82F0E94A801DB
:10074000082F10E0D5FC1F6FD0E0D4FCDF6FEE2443
:10075000FF24E01AF10A8D2D8270C82E8D2D847031
:10076000B82ED0FE02C061E001C060E088E00E94C7
:100770000101BB2011F061E001C060E086E00E9451
:100780000101CC2011F061E001C060E087E00E942F
:100790000101D7FD08C091E080E0209709F490E0C6
:1007A000892E982E03C088248A94982CD7FF03C0E2
:1007B000D195C195D109CC0FDD1FCC0FDD1FF7FC02
:1007C00009C091E080E0E114F10409F490E0692EA1
:1007D000782E03C066246A94762C17FD8701000FDB
:1007E000111F000F111F6E01C017D1070CF4680113
:1007F00081E0C81AD108C6010196181619060CF036
:100800007AC0C60183709927892B81F4E090210278
:10081000F09022026E2D8DE00E94D20081E090E0E7
:100820008E199F09909322028093210201151105D0
:1008300071F1E0901F02F09020025701AA0CBB1C3E
:10084000F501E45FFD4F80819181892B11F060E01B
:1008500001C061E08CE00E940101F501EC5FFD4FF9
:1008600080819181892B11F060E001C061E08AE014
:100870000E940101C3018E0D9F1D0496B2010E94CA
:1008800082049093200280931F0201501109209747
:1008900069F1E0901D02F0901E025701AA0CBB1CEA
:1008A000F501E45FFD4F80819181892B11F060E0BB
:1008B00001C061E08BE00E940101F501EC5FFD4F9A
:1008C00080819181892B11F060E001C061E089E0B5
:1008D0000E940101C701880D991D0496B2010E9472
:1008E000820490931E0280931D02219783EC90E076
:1008F0000197F1F77DCF2114310409F414CF0E9440
:10090000000011CF97FB072E16F4009407D077FD57
:1009100009D00E94960407FC05D03EF4909581957D
:100920009F4F0895709561957F4F0895AA1BBB1B3B
:1009300051E107C0AA1FBB1FA617B70710F0A61BDF
:10094000B70B881F991F5A95A9F780959095BC0100
:08095000CD010895F894FFCFDA
:100958000300020001000001000101000001010084
:100968000100000100010100010000010100000177
:100978000001010000010100010000010100000167
:100988000001010001000001000101000001010057
:100998000100000100010100010000010100000147
:1009A8000001010001000001000101000001010037
:1009B8000100000101000001000101000001010027
:1009C8000100000100010100010000010100000117
:1009D8000001010000010100010000010100000107
:1009E80000010100010000010001010000010100F7
:1009F80001000001010000010001010000010100E7
:100A080001000001000101000100000101000001D6
:100A180000010100010000010001010000010100C6
:100A280001000001000101000100000101000001B6
:100A380000010100000101000100000101000001A6
:100A48000001010001000001000101000001010096
:100A58000100000100000100010000000100010088
:040A6800000000008A
:00000001FF
