:100000000C94E5000C9402010C9402010C94020182
:100010000C9402010C9402010C9402010C94020154
:100020000C9402010C9402010C9402010C94020144
:100030000C9402010C9402010C9402010C94020134
:100040000C9439030C9402010C9402010C940201EB
:100050000C9402010C9402010C9402010C94020114
:100060000C9402010C940201010000010001010046
:100070000001010001000001000101000100000178
:100080000100000100010100000101000100000168
:100090000100000100010100010000010001010058
:1000A0000001010001000001000101000100000148
:1000B0000100000100010100010000010001010038
:1000C0000001010001000001010000010001010028
:1000D0000001010001000001000101000100000118
:1000E0000100000100010100000101000100000108
:1000F00001000001000101000100000100010100F8
:1001000000010100010000010100000100010100E7
:1001100000010100010000010001010001000001D7
:1001200001000001000101000100000100010100C7
:1001300000010100010000010001010001000001B7
:1001400001000001000101000001010001000001A7
:100150000100000100010100010000010001010097
:100160000001010001000001000000002400270040
:100170002A0000000000250028002B0000000000DD
:1001800023002600290004040404040404040202D9
:100190000202020203030303030301020408102006
:1001A0004080010204081020010204081020000011
:1001B0000008000201000003040700000000000026
:1001C0000000000101000101000011241FBECFEF5B
:1001D000D8E0DEBFCDBF11E0A0E0B1E0E4ECF9E093
:1001E00002C005900D92A230B107D9F721E0A2E03C
:1001F000B1E001C01D92AD30B207E1F70E948E035D
:100200000C94E0040C940000833081F028F48130D9
:1002100099F08230A1F008958730A9F08830B9F0C4
:100220008430D1F4809180008F7D03C08091800064
:100230008F7780938000089584B58F7702C084B54E
:100240008F7D84BD08958091B0008F7703C0809129
:10025000B0008F7D8093B0000895CF93DF93282F57
:1002600030E0F901E255FE4F8491F901E656FE4F68
:10027000D491F901EA57FE4FC491CC2391F081113A
:100280000E940401EC2FF0E0EE0FFF1FE458FE4F38
:10029000A591B491EC91ED2381E090E021F480E010
:1002A00002C080E090E0DF91CF9108951F93CF933B
:1002B000DF93282F30E0F901E255FE4F8491F901D8
:1002C000E656FE4FD491F901EA57FE4FC491CC2374
:1002D000C1F0162F81110E940401EC2FF0E0EE0F07
:1002E000FF1FEE58FE4FA591B4919FB7F8941111DE
:1002F00004C08C91D095D82302C0EC91DE2BDC9306
:100300009FBFDF91CF911F910895CF93DF9390E02E
:10031000FC01E656FE4F2491FC01EA57FE4F849102
:10032000882361F190E0880F991FFC01E859FE4F86
:10033000C591D491FC01EE58FE4FA591B491611185
:1003400009C09FB7F8948881209582238883EC9117
:100350002E230BC0623061F49FB7F8948881322F4E
:10036000309583238883EC912E2B2C939FBF06C05E
:100370008FB7F894E8812E2B28838FBFDF91CF9120
:1003800008953FB7F8948091070190910801A091DA
:100390000901B0910A0126B5A89B05C02F3F19F0AD
:1003A0000196A11DB11D3FBFBA2FA92F982F8827F5
:1003B000820F911DA11DB11DBC01CD0142E0660F50
:1003C000771F881F991F4A95D1F708958F929F92A2
:1003D000AF92BF92CF92DF92EF92FF920E94C10143
:1003E0004B015C0188ECC82ED12CE12CF12C0E9431
:1003F000C101DC01CB0188199909AA09BB09883E12
:100400009340A105B10598F321E0C21AD108E10893
:10041000F10888EE880E83E0981EA11CB11CC1145F
:10042000D104E104F10419F7FF90EF90DF90CF9031
:10043000BF90AF909F908F90089560E080910001F1
:100440000E94560161E0809101010E94850183E5CF
:1004500092E00197F1F708951F93CF93DF93182F40
:10046000C62FD0E0812F0E942D018C179D07D1F758
:10047000DF91CF911F910895EF92FF920F931F93F9
:10048000CF93DF93182FC091000162E08C2F0E9460
:1004900085010091010162E0802F0E948501E12F1A
:1004A000F0E0E859FF4FD49160E08C2F0E94560194
:1004B00061E0802F0E94850183E592E00197F1F7CA
:1004C00060E0802F0E94560161E0802F0E9485012C
:1004D00062E08C2F0E94850160E08C2F0E942C022C
:1004E00088E0E82EF12C10FF04C062E08091010149
:1004F00008C0C091010160E08C2F0E94560161E0AC
:100500008C2F0E9485011695C091000161E08C2F0F
:100510000E942C0260E08C2F0E942C0281E0E81ADD
:10052000F10809F7DD2321F062E08091010108C0A4
:10053000D091010160E08D2F0E94560161E08D2F66
:100540000E94850161E08C2F0E942C0260E08C2FBC
:100550000E942C02D091010162E08D2F0E94850142
:1005600060E08D2F0E942C0260E08C2F0E942C02F4
:1005700061E08D2F0E942C0261E08C2FDF91CF91E2
:100580001F910F91FF90EF900C942C02EF92FF922D
:100590000F931F93CF93DF93C091000160E08C2FE6
:1005A0000E942C0210910101812F0E942D018111C6
:1005B0000E94830388E0E82EF12C01E0D0E061E0A6
:1005C0008C2F0E942C0260E08C2F0E942C02812F25
:1005D0000E942D01882311F0802F01C080E0D82BCC
:1005E000000F81E0E81AF10851F761E08C2F0E94BA
:1005F0002C0260E08C2F0E942C02812F0E942D0182
:10060000ED2FF0E0E859FF4FE491E813D1CF61E01E
:100610008C2F0E942C0260E08C2F0E942C02812FD4
:100620000E942D01813009F0C3CF61E08C2F0E9420
:100630002C028D2FDF91CF911F910F91FF90EF90A2
:1006400008950E94E60161E08DE00E9456010E943B
:10065000E60160E08DE00E9456010E94E60161E043
:100660008DE00E9456010E94E60160E08DE00C944E
:1006700056011F920F920FB60F9211242F933F93A2
:100680008F939F93AF93BF93809103019091040147
:10069000A0910501B09106013091020123E0230FE2
:1006A0002D3720F40196A11DB11D05C026E8230FAA
:1006B0000296A11DB11D2093020180930301909326
:1006C0000401A0930501B093060180910701909168
:1006D0000801A0910901B0910A010196A11DB11D67
:1006E0008093070190930801A0930901B0930A0138
:1006F000BF91AF919F918F913F912F910F900FBE1E
:100700000F901F90189598E088E10FB6F894A8957F
:10071000809360000FBE90936000FFCF789484B503
:10072000826084BD84B5816084BD85B5826085BDED
:1007300085B5816085BD80916E00816080936E007B
:10074000109281008091810082608093810080916D
:10075000810081608093810080918000816080931E
:1007600080008091B10084608093B1008091B000DE
:1007700081608093B00080917A00846080937A00D9
:1007800080917A00826080937A0080917A00816003
:1007900080937A0080917A00806880937A0010922A
:1007A000C10083E08093000182E08093010161E059
:1007B0008DE00E9485010E94210360E08CE00E9490
:1007C000850160E08BE00E94850160E08AE00E9484
:1007D000850160E089E00E94850160E088E00E9478
:1007E000850160E087E00E94850160E086E00E946C
:1007F00085018FEF0E943C020E94C6020E94C60241
:100800000E94C60288EE0E943C020E94C60282E05C
:100810000E943C020E94C60284EF0E943C020E9499
:10082000C6020E941D020E94210383ECC82ED12C17
:1008300090E0A92E90E0B92E62E0809101010E9423
:1008400085010E94C602F82E0E94C602C82F0E948F
:10085000C602082F0E941D0210E0F5FC1F6FD0E0B9
:10086000F4FCDF6F88249924801A910A8F2D8270FE
:10087000E82E8F2D8470782EF0FE02C061E001C05A
:1008800060E088E00E948501772011F061E001C0FE
:1008900060E086E00E948501EE2011F061E001C079
:1008A00060E087E00E948501D7FD06C081E02097C7
:1008B00009F480E0782E02C077247A94D7FF03C031
:1008C000D195C195D1097E0197FC07C081E08114C3
:1008D000910409F480E0682E02C066246A9417FD32
:1008E0008401C017D1070CF4E8012197CE010196CD
:1008F000181619060CF05DC0CE0183709927892B5C
:1009000039F48DE00E942D01682F8DE00E94560180
:100910000115110519F150900C01852C912CF40151
:10092000EA53FE4FE491EE2311F060E001C061E074
:100930008CE00E948501F401EE53FE4FE491EE231A
:1009400011F060E001C061E08AE00E948501852D20
:10095000860D837080930C0101501109E114F1049C
:1009600021F150900B01852C912CF401EA53FE4F9C
:10097000E491EE2311F060E001C061E08BE00E94A1
:100980008501F401EE53FE4FE491EE2311F060E097
:1009900001C061E089E00E948501852D870D83708B
:1009A00080930B0181E0E81AF108C6010197F1F785
:1009B0009CCFA114B10409F43FCF0E9400003CCFAA
:0409C000F894FFCFD9
:0209C40002032C
:00000001FF
